{
  "_format": "hh-sol-artifact-1",
  "contractName": "Lock",
  "sourceName": "contracts/Lock.sol",
  "abi": [
    {
      "inputs": [],
      "stateMutability": "nonpayable",
      "type": "constructor"
    },
    {
      "inputs": [
        {
          "internalType": "string",
          "name": "name",
          "type": "string"
        },
        {
          "internalType": "string",
          "name": "message",
          "type": "string"
        }
      ],
      "name": "buyChai",
      "outputs": [],
      "stateMutability": "payable",
      "type": "function"
    },
    {
      "inputs": [],
      "name": "getMemos",
      "outputs": [
        {
          "components": [
            {
              "internalType": "string",
              "name": "name",
              "type": "string"
            },
            {
              "internalType": "string",
              "name": "message",
              "type": "string"
            },
            {
              "internalType": "uint256",
              "name": "timestamp",
              "type": "uint256"
            },
            {
              "internalType": "address",
              "name": "from",
              "type": "address"
            }
          ],
          "internalType": "struct Lock.Memo[]",
          "name": "",
          "type": "tuple[]"
        }
      ],
      "stateMutability": "view",
      "type": "function"
    },
    {
      "inputs": [
        {
          "internalType": "uint256",
          "name": "",
          "type": "uint256"
        }
      ],
      "name": "memos",
      "outputs": [
        {
          "internalType": "string",
          "name": "name",
          "type": "string"
        },
        {
          "internalType": "string",
          "name": "message",
          "type": "string"
        },
        {
          "internalType": "uint256",
          "name": "timestamp",
          "type": "uint256"
        },
        {
          "internalType": "address",
          "name": "from",
          "type": "address"
        }
      ],
      "stateMutability": "view",
      "type": "function"
    },
    {
      "inputs": [],
      "name": "owner",
      "outputs": [
        {
          "internalType": "address payable",
          "name": "",
          "type": "address"
        }
      ],
      "stateMutability": "view",
      "type": "function"
    }
  ],
  "bytecode": "0x608060405234801561001057600080fd5b50600180546001600160a01b03191633179055610945806100326000396000f3fe60806040526004361061003f5760003560e01c80636a13d85914610044578063865c5172146100595780638da5cb5b14610084578063e8dfdf04146100bc575b600080fd5b6100576100523660046105f6565b6100ec565b005b34801561006557600080fd5b5061006e61026c565b60405161007b91906106a8565b60405180910390f35b34801561009057600080fd5b506001546100a4906001600160a01b031681565b6040516001600160a01b03909116815260200161007b565b3480156100c857600080fd5b506100dc6100d736600461074e565b610453565b60405161007b9493929190610767565b600034116101345760405162461bcd60e51b815260206004820152601060248201526f1e5bdd48195b9d195c9959081b9d5b1b60821b60448201526064015b60405180910390fd5b6001546040516001600160a01b03909116903480156108fc02916000818181858888f1935050505015801561016d573d6000803e3d6000fd5b506040805160a06020601f87018190040282018101909252608081018581526000928291908890889081908501838280828437600092019190915250505090825250604080516020601f87018190048102820181019092528581529181019190869086908190840183828082843760009201829052509385525050426020808501919091523360409094019390935250835460018101855593815220815191926004020190819061021e908261084f565b5060208201516001820190610233908261084f565b5060408201516002820155606090910151600390910180546001600160a01b0319166001600160a01b0390921691909117905550505050565b6000546060906102af5760405162461bcd60e51b815260206004820152600e60248201526d6d656d6f7320697320656d70747960901b604482015260640161012b565b6000805480602002602001604051908101604052809291908181526020016000905b8282101561044a5783829060005260206000209060040201604051806080016040529081600082018054610304906107c4565b80601f0160208091040260200160405190810160405280929190818152602001828054610330906107c4565b801561037d5780601f106103525761010080835404028352916020019161037d565b820191906000526020600020905b81548152906001019060200180831161036057829003601f168201915b50505050508152602001600182018054610396906107c4565b80601f01602080910402602001604051908101604052809291908181526020018280546103c2906107c4565b801561040f5780601f106103e45761010080835404028352916020019161040f565b820191906000526020600020905b8154815290600101906020018083116103f257829003601f168201915b505050918352505060028201546020808301919091526003909201546001600160a01b031660409091015290825260019290920191016102d1565b50505050905090565b6000818154811061046357600080fd5b9060005260206000209060040201600091509050806000018054610486906107c4565b80601f01602080910402602001604051908101604052809291908181526020018280546104b2906107c4565b80156104ff5780601f106104d4576101008083540402835291602001916104ff565b820191906000526020600020905b8154815290600101906020018083116104e257829003601f168201915b505050505090806001018054610514906107c4565b80601f0160208091040260200160405190810160405280929190818152602001828054610540906107c4565b801561058d5780601f106105625761010080835404028352916020019161058d565b820191906000526020600020905b81548152906001019060200180831161057057829003601f168201915b5050505060028301546003909301549192916001600160a01b0316905084565b60008083601f8401126105bf57600080fd5b50813567ffffffffffffffff8111156105d757600080fd5b6020830191508360208285010111156105ef57600080fd5b9250929050565b6000806000806040858703121561060c57600080fd5b843567ffffffffffffffff8082111561062457600080fd5b610630888389016105ad565b9096509450602087013591508082111561064957600080fd5b50610656878288016105ad565b95989497509550505050565b6000815180845260005b818110156106885760208185018101518683018201520161066c565b506000602082860101526020601f19601f83011685010191505092915050565b600060208083018184528085518083526040925060408601915060408160051b87010184880160005b8381101561074057603f198984030185528151608081518186526106f782870182610662565b915050888201518582038a87015261070f8282610662565b838a0151878b01526060938401516001600160a01b03169390960192909252505093860193908601906001016106d1565b509098975050505050505050565b60006020828403121561076057600080fd5b5035919050565b60808152600061077a6080830187610662565b828103602084015261078c8187610662565b604084019590955250506001600160a01b039190911660609091015292915050565b634e487b7160e01b600052604160045260246000fd5b600181811c908216806107d857607f821691505b6020821081036107f857634e487b7160e01b600052602260045260246000fd5b50919050565b601f82111561084a576000816000526020600020601f850160051c810160208610156108275750805b601f850160051c820191505b8181101561084657828155600101610833565b5050505b505050565b815167ffffffffffffffff811115610869576108696107ae565b61087d8161087784546107c4565b846107fe565b602080601f8311600181146108b2576000841561089a5750858301515b600019600386901b1c1916600185901b178555610846565b600085815260208120601f198616915b828110156108e1578886015182559484019460019091019084016108c2565b50858210156108ff5787850151600019600388901b60f8161c191681555b5050505050600190811b0190555056fea2646970667358221220fb969dd30f9173b11d73a5a04dc5a296ac27308184b8a9f9bd1751ce0bf053b764736f6c63430008170033",
  "linkReferences": {},
  "deployedLinkReferences": {}
}